{
  "_format": "hh-sol-artifact-1",
  "contractName": "Doct",
  "sourceName": "contracts/DocT.sol",
  "abi": [
    {
      "inputs": [],
      "stateMutability": "nonpayable",
      "type": "constructor"
    },
    {
      "anonymous": false,
      "inputs": [
        {
          "indexed": true,
          "internalType": "address",
          "name": "owner",
          "type": "address"
        },
        {
          "indexed": true,
          "internalType": "address",
          "name": "approved",
          "type": "address"
        },
        {
          "indexed": true,
          "internalType": "uint256",
          "name": "tokenId",
          "type": "uint256"
        }
      ],
      "name": "Approval",
      "type": "event"
    },
    {
      "anonymous": false,
      "inputs": [
        {
          "indexed": true,
          "internalType": "address",
          "name": "owner",
          "type": "address"
        },
        {
          "indexed": true,
          "internalType": "address",
          "name": "operator",
          "type": "address"
        },
        {
          "indexed": false,
          "internalType": "bool",
          "name": "approved",
          "type": "bool"
        }
      ],
      "name": "ApprovalForAll",
      "type": "event"
    },
    {
      "anonymous": false,
      "inputs": [
        {
          "indexed": true,
          "internalType": "address",
          "name": "previousOwner",
          "type": "address"
        },
        {
          "indexed": true,
          "internalType": "address",
          "name": "newOwner",
          "type": "address"
        }
      ],
      "name": "OwnershipTransferred",
      "type": "event"
    },
    {
      "anonymous": false,
      "inputs": [
        {
          "indexed": true,
          "internalType": "address",
          "name": "from",
          "type": "address"
        },
        {
          "indexed": true,
          "internalType": "address",
          "name": "to",
          "type": "address"
        },
        {
          "indexed": true,
          "internalType": "uint256",
          "name": "tokenId",
          "type": "uint256"
        }
      ],
      "name": "Transfer",
      "type": "event"
    },
    {
      "inputs": [
        {
          "internalType": "string",
          "name": "uri",
          "type": "string"
        }
      ],
      "name": "addDoc",
      "outputs": [],
      "stateMutability": "nonpayable",
      "type": "function"
    },
    {
      "inputs": [
        {
          "internalType": "address",
          "name": "to",
          "type": "address"
        },
        {
          "internalType": "uint256",
          "name": "tokenId",
          "type": "uint256"
        }
      ],
      "name": "approve",
      "outputs": [],
      "stateMutability": "nonpayable",
      "type": "function"
    },
    {
      "inputs": [
        {
          "internalType": "address",
          "name": "owner",
          "type": "address"
        }
      ],
      "name": "balanceOf",
      "outputs": [
        {
          "internalType": "uint256",
          "name": "",
          "type": "uint256"
        }
      ],
      "stateMutability": "view",
      "type": "function"
    },
    {
      "inputs": [
        {
          "internalType": "uint256",
          "name": "tokenId",
          "type": "uint256"
        }
      ],
      "name": "getApproved",
      "outputs": [
        {
          "internalType": "address",
          "name": "",
          "type": "address"
        }
      ],
      "stateMutability": "view",
      "type": "function"
    },
    {
      "inputs": [],
      "name": "getdocuments",
      "outputs": [
        {
          "internalType": "string[]",
          "name": "",
          "type": "string[]"
        }
      ],
      "stateMutability": "view",
      "type": "function"
    },
    {
      "inputs": [
        {
          "internalType": "address",
          "name": "owner",
          "type": "address"
        },
        {
          "internalType": "address",
          "name": "operator",
          "type": "address"
        }
      ],
      "name": "isApprovedForAll",
      "outputs": [
        {
          "internalType": "bool",
          "name": "",
          "type": "bool"
        }
      ],
      "stateMutability": "view",
      "type": "function"
    },
    {
      "inputs": [],
      "name": "name",
      "outputs": [
        {
          "internalType": "string",
          "name": "",
          "type": "string"
        }
      ],
      "stateMutability": "view",
      "type": "function"
    },
    {
      "inputs": [],
      "name": "owner",
      "outputs": [
        {
          "internalType": "address",
          "name": "",
          "type": "address"
        }
      ],
      "stateMutability": "view",
      "type": "function"
    },
    {
      "inputs": [
        {
          "internalType": "uint256",
          "name": "tokenId",
          "type": "uint256"
        }
      ],
      "name": "ownerOf",
      "outputs": [
        {
          "internalType": "address",
          "name": "",
          "type": "address"
        }
      ],
      "stateMutability": "view",
      "type": "function"
    },
    {
      "inputs": [],
      "name": "renounceOwnership",
      "outputs": [],
      "stateMutability": "nonpayable",
      "type": "function"
    },
    {
      "inputs": [
        {
          "internalType": "address",
          "name": "from",
          "type": "address"
        },
        {
          "internalType": "address",
          "name": "to",
          "type": "address"
        },
        {
          "internalType": "uint256",
          "name": "tokenId",
          "type": "uint256"
        }
      ],
      "name": "safeTransferFrom",
      "outputs": [],
      "stateMutability": "nonpayable",
      "type": "function"
    },
    {
      "inputs": [
        {
          "internalType": "address",
          "name": "from",
          "type": "address"
        },
        {
          "internalType": "address",
          "name": "to",
          "type": "address"
        },
        {
          "internalType": "uint256",
          "name": "tokenId",
          "type": "uint256"
        },
        {
          "internalType": "bytes",
          "name": "data",
          "type": "bytes"
        }
      ],
      "name": "safeTransferFrom",
      "outputs": [],
      "stateMutability": "nonpayable",
      "type": "function"
    },
    {
      "inputs": [
        {
          "internalType": "address",
          "name": "operator",
          "type": "address"
        },
        {
          "internalType": "bool",
          "name": "approved",
          "type": "bool"
        }
      ],
      "name": "setApprovalForAll",
      "outputs": [],
      "stateMutability": "nonpayable",
      "type": "function"
    },
    {
      "inputs": [
        {
          "internalType": "bytes4",
          "name": "interfaceId",
          "type": "bytes4"
        }
      ],
      "name": "supportsInterface",
      "outputs": [
        {
          "internalType": "bool",
          "name": "",
          "type": "bool"
        }
      ],
      "stateMutability": "view",
      "type": "function"
    },
    {
      "inputs": [],
      "name": "symbol",
      "outputs": [
        {
          "internalType": "string",
          "name": "",
          "type": "string"
        }
      ],
      "stateMutability": "view",
      "type": "function"
    },
    {
      "inputs": [
        {
          "internalType": "uint256",
          "name": "tokenId",
          "type": "uint256"
        }
      ],
      "name": "tokenURI",
      "outputs": [
        {
          "internalType": "string",
          "name": "",
          "type": "string"
        }
      ],
      "stateMutability": "view",
      "type": "function"
    },
    {
      "inputs": [
        {
          "internalType": "address",
          "name": "from",
          "type": "address"
        },
        {
          "internalType": "address",
          "name": "to",
          "type": "address"
        },
        {
          "internalType": "uint256",
          "name": "tokenId",
          "type": "uint256"
        }
      ],
      "name": "transferFrom",
      "outputs": [],
      "stateMutability": "nonpayable",
      "type": "function"
    },
    {
      "inputs": [
        {
          "internalType": "address",
          "name": "newOwner",
          "type": "address"
        }
      ],
      "name": "transferOwnership",
      "outputs": [],
      "stateMutability": "nonpayable",
      "type": "function"
    }
  ],
  "bytecode": "0x60806040523480156200001157600080fd5b506040518060400160405280600481526020017f446f6374000000000000000000000000000000000000000000000000000000008152506040518060400160405280600481526020017f444f435400000000000000000000000000000000000000000000000000000000815250816000908051906020019062000096929190620001a6565b508060019080519060200190620000af929190620001a6565b505050620000d2620000c6620000d860201b60201c565b620000e060201b60201c565b620002bb565b600033905090565b6000600760009054906101000a900473ffffffffffffffffffffffffffffffffffffffff16905081600760006101000a81548173ffffffffffffffffffffffffffffffffffffffff021916908373ffffffffffffffffffffffffffffffffffffffff1602179055508173ffffffffffffffffffffffffffffffffffffffff168173ffffffffffffffffffffffffffffffffffffffff167f8be0079c531659141344cd1fd0a4f28419497f9722a3daafe3b4186f6b6457e060405160405180910390a35050565b828054620001b49062000285565b90600052602060002090601f016020900481019282620001d8576000855562000224565b82601f10620001f357805160ff191683800117855562000224565b8280016001018555821562000224579182015b828111156200022357825182559160200191906001019062000206565b5b50905062000233919062000237565b5090565b5b808211156200025257600081600090555060010162000238565b5090565b7f4e487b7100000000000000000000000000000000000000000000000000000000600052602260045260246000fd5b600060028204905060018216806200029e57607f821691505b60208210811415620002b557620002b462000256565b5b50919050565b61313180620002cb6000396000f3fe608060405234801561001057600080fd5b50600436106101165760003560e01c8063715018a6116100a2578063a22cb46511610071578063a22cb465146102cd578063b88d4fde146102e9578063c87b56dd14610305578063e985e9c514610335578063f2fde38b1461036557610116565b8063715018a6146102695780638da5cb5b1461027357806395d89b41146102915780639a1d8eca146102af57610116565b806320bacfbd116100e957806320bacfbd146101b557806323b872dd146101d157806342842e0e146101ed5780636352211e1461020957806370a082311461023957610116565b806301ffc9a71461011b57806306fdde031461014b578063081812fc14610169578063095ea7b314610199575b600080fd5b61013560048036038101906101309190611fc2565b610381565b604051610142919061200a565b60405180910390f35b610153610463565b60405161016091906120be565b60405180910390f35b610183600480360381019061017e9190612116565b6104f5565b6040516101909190612184565b60405180910390f35b6101b360048036038101906101ae91906121cb565b61053b565b005b6101cf60048036038101906101ca9190612340565b610653565b005b6101eb60048036038101906101e69190612389565b6106d9565b005b61020760048036038101906102029190612389565b610739565b005b610223600480360381019061021e9190612116565b610759565b6040516102309190612184565b60405180910390f35b610253600480360381019061024e91906123dc565b6107e0565b6040516102609190612418565b60405180910390f35b610271610898565b005b61027b6108ac565b6040516102889190612184565b60405180910390f35b6102996108d6565b6040516102a691906120be565b60405180910390f35b6102b7610968565b6040516102c4919061253f565b60405180910390f35b6102e760048036038101906102e2919061258d565b610a7e565b005b61030360048036038101906102fe919061266e565b610a94565b005b61031f600480360381019061031a9190612116565b610af6565b60405161032c91906120be565b60405180910390f35b61034f600480360381019061034a91906126f1565b610b08565b60405161035c919061200a565b60405180910390f35b61037f600480360381019061037a91906123dc565b610b9c565b005b60007f80ac58cd000000000000000000000000000000000000000000000000000000007bffffffffffffffffffffffffffffffffffffffffffffffffffffffff1916827bffffffffffffffffffffffffffffffffffffffffffffffffffffffff1916148061044c57507f5b5e139f000000000000000000000000000000000000000000000000000000007bffffffffffffffffffffffffffffffffffffffffffffffffffffffff1916827bffffffffffffffffffffffffffffffffffffffffffffffffffffffff1916145b8061045c575061045b82610c20565b5b9050919050565b60606000805461047290612760565b80601f016020809104026020016040519081016040528092919081815260200182805461049e90612760565b80156104eb5780601f106104c0576101008083540402835291602001916104eb565b820191906000526020600020905b8154815290600101906020018083116104ce57829003601f168201915b5050505050905090565b600061050082610c8a565b6004600083815260200190815260200160002060009054906101000a900473ffffffffffffffffffffffffffffffffffffffff169050919050565b600061054682610759565b90508073ffffffffffffffffffffffffffffffffffffffff168373ffffffffffffffffffffffffffffffffffffffff1614156105b7576040517f08c379a00000000000000000000000000000000000000000000000000000000081526004016105ae90612804565b60405180910390fd5b8073ffffffffffffffffffffffffffffffffffffffff166105d6610cd5565b73ffffffffffffffffffffffffffffffffffffffff1614806106055750610604816105ff610cd5565b610b08565b5b610644576040517f08c379a000000000000000000000000000000000000000000000000000000000815260040161063b90612896565b60405180910390fd5b61064e8383610cdd565b505050565b600860003373ffffffffffffffffffffffffffffffffffffffff1673ffffffffffffffffffffffffffffffffffffffff168152602001908152602001600020819080600181540180825580915050600190039060005260206000200160009091909190915090805190602001906106cb929190611eb3565b506106d63382610d96565b50565b6106ea6106e4610cd5565b82610dc7565b610729576040517f08c379a000000000000000000000000000000000000000000000000000000000815260040161072090612928565b60405180910390fd5b610734838383610e5c565b505050565b61075483838360405180602001604052806000815250610a94565b505050565b60008061076583611156565b9050600073ffffffffffffffffffffffffffffffffffffffff168173ffffffffffffffffffffffffffffffffffffffff1614156107d7576040517f08c379a00000000000000000000000000000000000000000000000000000000081526004016107ce90612994565b60405180910390fd5b80915050919050565b60008073ffffffffffffffffffffffffffffffffffffffff168273ffffffffffffffffffffffffffffffffffffffff161415610851576040517f08c379a000000000000000000000000000000000000000000000000000000000815260040161084890612a26565b60405180910390fd5b600360008373ffffffffffffffffffffffffffffffffffffffff1673ffffffffffffffffffffffffffffffffffffffff168152602001908152602001600020549050919050565b6108a0611193565b6108aa6000611211565b565b6000600760009054906101000a900473ffffffffffffffffffffffffffffffffffffffff16905090565b6060600180546108e590612760565b80601f016020809104026020016040519081016040528092919081815260200182805461091190612760565b801561095e5780601f106109335761010080835404028352916020019161095e565b820191906000526020600020905b81548152906001019060200180831161094157829003601f168201915b5050505050905090565b6060600860003373ffffffffffffffffffffffffffffffffffffffff1673ffffffffffffffffffffffffffffffffffffffff168152602001908152602001600020805480602002602001604051908101604052809291908181526020016000905b82821015610a755783829060005260206000200180546109e890612760565b80601f0160208091040260200160405190810160405280929190818152602001828054610a1490612760565b8015610a615780601f10610a3657610100808354040283529160200191610a61565b820191906000526020600020905b815481529060010190602001808311610a4457829003601f168201915b5050505050815260200190600101906109c9565b50505050905090565b610a90610a89610cd5565b83836112d7565b5050565b610aa5610a9f610cd5565b83610dc7565b610ae4576040517f08c379a0000000000000000000000000000000000000000000000000000000008152600401610adb90612928565b60405180910390fd5b610af084848484611444565b50505050565b6060610b01826114a0565b9050919050565b6000600560008473ffffffffffffffffffffffffffffffffffffffff1673ffffffffffffffffffffffffffffffffffffffff16815260200190815260200160002060008373ffffffffffffffffffffffffffffffffffffffff1673ffffffffffffffffffffffffffffffffffffffff16815260200190815260200160002060009054906101000a900460ff16905092915050565b610ba4611193565b600073ffffffffffffffffffffffffffffffffffffffff168173ffffffffffffffffffffffffffffffffffffffff161415610c14576040517f08c379a0000000000000000000000000000000000000000000000000000000008152600401610c0b90612ab8565b60405180910390fd5b610c1d81611211565b50565b60007f01ffc9a7000000000000000000000000000000000000000000000000000000007bffffffffffffffffffffffffffffffffffffffffffffffffffffffff1916827bffffffffffffffffffffffffffffffffffffffffffffffffffffffff1916149050919050565b610c93816115b3565b610cd2576040517f08c379a0000000000000000000000000000000000000000000000000000000008152600401610cc990612994565b60405180910390fd5b50565b600033905090565b816004600083815260200190815260200160002060006101000a81548173ffffffffffffffffffffffffffffffffffffffff021916908373ffffffffffffffffffffffffffffffffffffffff160217905550808273ffffffffffffffffffffffffffffffffffffffff16610d5083610759565b73ffffffffffffffffffffffffffffffffffffffff167f8c5be1e5ebec7d5bd14f71427d1e84f3dd0314c0f7b2291e5b200ac8c7c3b92560405160405180910390a45050565b6000610da260096115f4565b9050610dae6009611602565b610db88382611618565b610dc28183611636565b505050565b600080610dd383610759565b90508073ffffffffffffffffffffffffffffffffffffffff168473ffffffffffffffffffffffffffffffffffffffff161480610e155750610e148185610b08565b5b80610e5357508373ffffffffffffffffffffffffffffffffffffffff16610e3b846104f5565b73ffffffffffffffffffffffffffffffffffffffff16145b91505092915050565b8273ffffffffffffffffffffffffffffffffffffffff16610e7c82610759565b73ffffffffffffffffffffffffffffffffffffffff1614610ed2576040517f08c379a0000000000000000000000000000000000000000000000000000000008152600401610ec990612b4a565b60405180910390fd5b600073ffffffffffffffffffffffffffffffffffffffff168273ffffffffffffffffffffffffffffffffffffffff161415610f42576040517f08c379a0000000000000000000000000000000000000000000000000000000008152600401610f3990612bdc565b60405180910390fd5b610f4f83838360016116aa565b8273ffffffffffffffffffffffffffffffffffffffff16610f6f82610759565b73ffffffffffffffffffffffffffffffffffffffff1614610fc5576040517f08c379a0000000000000000000000000000000000000000000000000000000008152600401610fbc90612b4a565b60405180910390fd5b6004600082815260200190815260200160002060006101000a81549073ffffffffffffffffffffffffffffffffffffffff02191690556001600360008573ffffffffffffffffffffffffffffffffffffffff1673ffffffffffffffffffffffffffffffffffffffff168152602001908152602001600020600082825403925050819055506001600360008473ffffffffffffffffffffffffffffffffffffffff1673ffffffffffffffffffffffffffffffffffffffff16815260200190815260200160002060008282540192505081905550816002600083815260200190815260200160002060006101000a81548173ffffffffffffffffffffffffffffffffffffffff021916908373ffffffffffffffffffffffffffffffffffffffff160217905550808273ffffffffffffffffffffffffffffffffffffffff168473ffffffffffffffffffffffffffffffffffffffff167fddf252ad1be2c89b69c2b068fc378daa952ba7f163c4a11628f55a4df523b3ef60405160405180910390a461115183838360016117d0565b505050565b60006002600083815260200190815260200160002060009054906101000a900473ffffffffffffffffffffffffffffffffffffffff169050919050565b61119b610cd5565b73ffffffffffffffffffffffffffffffffffffffff166111b96108ac565b73ffffffffffffffffffffffffffffffffffffffff161461120f576040517f08c379a000000000000000000000000000000000000000000000000000000000815260040161120690612c48565b60405180910390fd5b565b6000600760009054906101000a900473ffffffffffffffffffffffffffffffffffffffff16905081600760006101000a81548173ffffffffffffffffffffffffffffffffffffffff021916908373ffffffffffffffffffffffffffffffffffffffff1602179055508173ffffffffffffffffffffffffffffffffffffffff168173ffffffffffffffffffffffffffffffffffffffff167f8be0079c531659141344cd1fd0a4f28419497f9722a3daafe3b4186f6b6457e060405160405180910390a35050565b8173ffffffffffffffffffffffffffffffffffffffff168373ffffffffffffffffffffffffffffffffffffffff161415611346576040517f08c379a000000000000000000000000000000000000000000000000000000000815260040161133d90612cb4565b60405180910390fd5b80600560008573ffffffffffffffffffffffffffffffffffffffff1673ffffffffffffffffffffffffffffffffffffffff16815260200190815260200160002060008473ffffffffffffffffffffffffffffffffffffffff1673ffffffffffffffffffffffffffffffffffffffff16815260200190815260200160002060006101000a81548160ff0219169083151502179055508173ffffffffffffffffffffffffffffffffffffffff168373ffffffffffffffffffffffffffffffffffffffff167f17307eab39ab6107e8899845ad3d59bd9653f200f220920489ca2b5937696c3183604051611437919061200a565b60405180910390a3505050565b61144f848484610e5c565b61145b848484846117d6565b61149a576040517f08c379a000000000000000000000000000000000000000000000000000000000815260040161149190612d46565b60405180910390fd5b50505050565b60606114ab82610c8a565b60006006600084815260200190815260200160002080546114cb90612760565b80601f01602080910402602001604051908101604052809291908181526020018280546114f790612760565b80156115445780601f1061151957610100808354040283529160200191611544565b820191906000526020600020905b81548152906001019060200180831161152757829003601f168201915b50505050509050600061155561196d565b905060008151141561156b5781925050506115ae565b6000825111156115a0578082604051602001611588929190612da2565b604051602081830303815290604052925050506115ae565b6115a984611984565b925050505b919050565b60008073ffffffffffffffffffffffffffffffffffffffff166115d583611156565b73ffffffffffffffffffffffffffffffffffffffff1614159050919050565b600081600001549050919050565b6001816000016000828254019250508190555050565b6116328282604051806020016040528060008152506119ec565b5050565b61163f826115b3565b61167e576040517f08c379a000000000000000000000000000000000000000000000000000000000815260040161167590612e38565b60405180910390fd5b806006600084815260200190815260200160002090805190602001906116a5929190611eb3565b505050565b60018111156117ca57600073ffffffffffffffffffffffffffffffffffffffff168473ffffffffffffffffffffffffffffffffffffffff161461173e5780600360008673ffffffffffffffffffffffffffffffffffffffff1673ffffffffffffffffffffffffffffffffffffffff16815260200190815260200160002060008282546117369190612e87565b925050819055505b600073ffffffffffffffffffffffffffffffffffffffff168373ffffffffffffffffffffffffffffffffffffffff16146117c95780600360008573ffffffffffffffffffffffffffffffffffffffff1673ffffffffffffffffffffffffffffffffffffffff16815260200190815260200160002060008282546117c19190612ebb565b925050819055505b5b50505050565b50505050565b60006117f78473ffffffffffffffffffffffffffffffffffffffff16611a47565b15611960578373ffffffffffffffffffffffffffffffffffffffff1663150b7a02611820610cd5565b8786866040518563ffffffff1660e01b81526004016118429493929190612f66565b602060405180830381600087803b15801561185c57600080fd5b505af192505050801561188d57506040513d601f19601f8201168201806040525081019061188a9190612fc7565b60015b611910573d80600081146118bd576040519150601f19603f3d011682016040523d82523d6000602084013e6118c2565b606091505b50600081511415611908576040517f08c379a00000000000000000000000000000000000000000000000000000000081526004016118ff90612d46565b60405180910390fd5b805181602001fd5b63150b7a0260e01b7bffffffffffffffffffffffffffffffffffffffffffffffffffffffff1916817bffffffffffffffffffffffffffffffffffffffffffffffffffffffff191614915050611965565b600190505b949350505050565b606060405180602001604052806000815250905090565b606061198f82610c8a565b600061199961196d565b905060008151116119b957604051806020016040528060008152506119e4565b806119c384611a6a565b6040516020016119d4929190612da2565b6040516020818303038152906040525b915050919050565b6119f68383611b42565b611a0360008484846117d6565b611a42576040517f08c379a0000000000000000000000000000000000000000000000000000000008152600401611a3990612d46565b60405180910390fd5b505050565b6000808273ffffffffffffffffffffffffffffffffffffffff163b119050919050565b606060006001611a7984611d60565b01905060008167ffffffffffffffff811115611a9857611a97612215565b5b6040519080825280601f01601f191660200182016040528015611aca5781602001600182028036833780820191505090505b509050600082602001820190505b600115611b37578080600190039150507f3031323334353637383961626364656600000000000000000000000000000000600a86061a8153600a8581611b2157611b20612ff4565b5b0494506000851415611b3257611b37565b611ad8565b819350505050919050565b600073ffffffffffffffffffffffffffffffffffffffff168273ffffffffffffffffffffffffffffffffffffffff161415611bb2576040517f08c379a0000000000000000000000000000000000000000000000000000000008152600401611ba99061306f565b60405180910390fd5b611bbb816115b3565b15611bfb576040517f08c379a0000000000000000000000000000000000000000000000000000000008152600401611bf2906130db565b60405180910390fd5b611c096000838360016116aa565b611c12816115b3565b15611c52576040517f08c379a0000000000000000000000000000000000000000000000000000000008152600401611c49906130db565b60405180910390fd5b6001600360008473ffffffffffffffffffffffffffffffffffffffff1673ffffffffffffffffffffffffffffffffffffffff16815260200190815260200160002060008282540192505081905550816002600083815260200190815260200160002060006101000a81548173ffffffffffffffffffffffffffffffffffffffff021916908373ffffffffffffffffffffffffffffffffffffffff160217905550808273ffffffffffffffffffffffffffffffffffffffff16600073ffffffffffffffffffffffffffffffffffffffff167fddf252ad1be2c89b69c2b068fc378daa952ba7f163c4a11628f55a4df523b3ef60405160405180910390a4611d5c6000838360016117d0565b5050565b600080600090507a184f03e93ff9f4daa797ed6e38ed64bf6a1f0100000000000000008310611dbe577a184f03e93ff9f4daa797ed6e38ed64bf6a1f0100000000000000008381611db457611db3612ff4565b5b0492506040810190505b6d04ee2d6d415b85acef81000000008310611dfb576d04ee2d6d415b85acef81000000008381611df157611df0612ff4565b5b0492506020810190505b662386f26fc100008310611e2a57662386f26fc100008381611e2057611e1f612ff4565b5b0492506010810190505b6305f5e1008310611e53576305f5e1008381611e4957611e48612ff4565b5b0492506008810190505b6127108310611e78576127108381611e6e57611e6d612ff4565b5b0492506004810190505b60648310611e9b5760648381611e9157611e90612ff4565b5b0492506002810190505b600a8310611eaa576001810190505b80915050919050565b828054611ebf90612760565b90600052602060002090601f016020900481019282611ee15760008555611f28565b82601f10611efa57805160ff1916838001178555611f28565b82800160010185558215611f28579182015b82811115611f27578251825591602001919060010190611f0c565b5b509050611f359190611f39565b5090565b5b80821115611f52576000816000905550600101611f3a565b5090565b6000604051905090565b600080fd5b600080fd5b60007fffffffff0000000000000000000000000000000000000000000000000000000082169050919050565b611f9f81611f6a565b8114611faa57600080fd5b50565b600081359050611fbc81611f96565b92915050565b600060208284031215611fd857611fd7611f60565b5b6000611fe684828501611fad565b91505092915050565b60008115159050919050565b61200481611fef565b82525050565b600060208201905061201f6000830184611ffb565b92915050565b600081519050919050565b600082825260208201905092915050565b60005b8381101561205f578082015181840152602081019050612044565b8381111561206e576000848401525b50505050565b6000601f19601f8301169050919050565b600061209082612025565b61209a8185612030565b93506120aa818560208601612041565b6120b381612074565b840191505092915050565b600060208201905081810360008301526120d88184612085565b905092915050565b6000819050919050565b6120f3816120e0565b81146120fe57600080fd5b50565b600081359050612110816120ea565b92915050565b60006020828403121561212c5761212b611f60565b5b600061213a84828501612101565b91505092915050565b600073ffffffffffffffffffffffffffffffffffffffff82169050919050565b600061216e82612143565b9050919050565b61217e81612163565b82525050565b60006020820190506121996000830184612175565b92915050565b6121a881612163565b81146121b357600080fd5b50565b6000813590506121c58161219f565b92915050565b600080604083850312156121e2576121e1611f60565b5b60006121f0858286016121b6565b925050602061220185828601612101565b9150509250929050565b600080fd5b600080fd5b7f4e487b7100000000000000000000000000000000000000000000000000000000600052604160045260246000fd5b61224d82612074565b810181811067ffffffffffffffff8211171561226c5761226b612215565b5b80604052505050565b600061227f611f56565b905061228b8282612244565b919050565b600067ffffffffffffffff8211156122ab576122aa612215565b5b6122b482612074565b9050602081019050919050565b82818337600083830152505050565b60006122e36122de84612290565b612275565b9050828152602081018484840111156122ff576122fe612210565b5b61230a8482856122c1565b509392505050565b600082601f8301126123275761232661220b565b5b81356123378482602086016122d0565b91505092915050565b60006020828403121561235657612355611f60565b5b600082013567ffffffffffffffff81111561237457612373611f65565b5b61238084828501612312565b91505092915050565b6000806000606084860312156123a2576123a1611f60565b5b60006123b0868287016121b6565b93505060206123c1868287016121b6565b92505060406123d286828701612101565b9150509250925092565b6000602082840312156123f2576123f1611f60565b5b6000612400848285016121b6565b91505092915050565b612412816120e0565b82525050565b600060208201905061242d6000830184612409565b92915050565b600081519050919050565b600082825260208201905092915050565b6000819050602082019050919050565b600082825260208201905092915050565b600061247b82612025565b612485818561245f565b9350612495818560208601612041565b61249e81612074565b840191505092915050565b60006124b58383612470565b905092915050565b6000602082019050919050565b60006124d582612433565b6124df818561243e565b9350836020820285016124f18561244f565b8060005b8581101561252d578484038952815161250e85826124a9565b9450612519836124bd565b925060208a019950506001810190506124f5565b50829750879550505050505092915050565b6000602082019050818103600083015261255981846124ca565b905092915050565b61256a81611fef565b811461257557600080fd5b50565b60008135905061258781612561565b92915050565b600080604083850312156125a4576125a3611f60565b5b60006125b2858286016121b6565b92505060206125c385828601612578565b9150509250929050565b600067ffffffffffffffff8211156125e8576125e7612215565b5b6125f182612074565b9050602081019050919050565b600061261161260c846125cd565b612275565b90508281526020810184848401111561262d5761262c612210565b5b6126388482856122c1565b509392505050565b600082601f8301126126555761265461220b565b5b81356126658482602086016125fe565b91505092915050565b6000806000806080858703121561268857612687611f60565b5b6000612696878288016121b6565b94505060206126a7878288016121b6565b93505060406126b887828801612101565b925050606085013567ffffffffffffffff8111156126d9576126d8611f65565b5b6126e587828801612640565b91505092959194509250565b6000806040838503121561270857612707611f60565b5b6000612716858286016121b6565b9250506020612727858286016121b6565b9150509250929050565b7f4e487b7100000000000000000000000000000000000000000000000000000000600052602260045260246000fd5b6000600282049050600182168061277857607f821691505b6020821081141561278c5761278b612731565b5b50919050565b7f4552433732313a20617070726f76616c20746f2063757272656e74206f776e6560008201527f7200000000000000000000000000000000000000000000000000000000000000602082015250565b60006127ee602183612030565b91506127f982612792565b604082019050919050565b6000602082019050818103600083015261281d816127e1565b9050919050565b7f4552433732313a20617070726f76652063616c6c6572206973206e6f7420746f60008201527f6b656e206f776e6572206f7220617070726f76656420666f7220616c6c000000602082015250565b6000612880603d83612030565b915061288b82612824565b604082019050919050565b600060208201905081810360008301526128af81612873565b9050919050565b7f4552433732313a2063616c6c6572206973206e6f7420746f6b656e206f776e6560008201527f72206f7220617070726f76656400000000000000000000000000000000000000602082015250565b6000612912602d83612030565b915061291d826128b6565b604082019050919050565b6000602082019050818103600083015261294181612905565b9050919050565b7f4552433732313a20696e76616c696420746f6b656e2049440000000000000000600082015250565b600061297e601883612030565b915061298982612948565b602082019050919050565b600060208201905081810360008301526129ad81612971565b9050919050565b7f4552433732313a2061646472657373207a65726f206973206e6f74206120766160008201527f6c6964206f776e65720000000000000000000000000000000000000000000000602082015250565b6000612a10602983612030565b9150612a1b826129b4565b604082019050919050565b60006020820190508181036000830152612a3f81612a03565b9050919050565b7f4f776e61626c653a206e6577206f776e657220697320746865207a65726f206160008201527f6464726573730000000000000000000000000000000000000000000000000000602082015250565b6000612aa2602683612030565b9150612aad82612a46565b604082019050919050565b60006020820190508181036000830152612ad181612a95565b9050919050565b7f4552433732313a207472616e736665722066726f6d20696e636f72726563742060008201527f6f776e6572000000000000000000000000000000000000000000000000000000602082015250565b6000612b34602583612030565b9150612b3f82612ad8565b604082019050919050565b60006020820190508181036000830152612b6381612b27565b9050919050565b7f4552433732313a207472616e7366657220746f20746865207a65726f2061646460008201527f7265737300000000000000000000000000000000000000000000000000000000602082015250565b6000612bc6602483612030565b9150612bd182612b6a565b604082019050919050565b60006020820190508181036000830152612bf581612bb9565b9050919050565b7f4f776e61626c653a2063616c6c6572206973206e6f7420746865206f776e6572600082015250565b6000612c32602083612030565b9150612c3d82612bfc565b602082019050919050565b60006020820190508181036000830152612c6181612c25565b9050919050565b7f4552433732313a20617070726f766520746f2063616c6c657200000000000000600082015250565b6000612c9e601983612030565b9150612ca982612c68565b602082019050919050565b60006020820190508181036000830152612ccd81612c91565b9050919050565b7f4552433732313a207472616e7366657220746f206e6f6e20455243373231526560008201527f63656976657220696d706c656d656e7465720000000000000000000000000000602082015250565b6000612d30603283612030565b9150612d3b82612cd4565b604082019050919050565b60006020820190508181036000830152612d5f81612d23565b9050919050565b600081905092915050565b6000612d7c82612025565b612d868185612d66565b9350612d96818560208601612041565b80840191505092915050565b6000612dae8285612d71565b9150612dba8284612d71565b91508190509392505050565b7f45524337323155524953746f726167653a2055524920736574206f66206e6f6e60008201527f6578697374656e7420746f6b656e000000000000000000000000000000000000602082015250565b6000612e22602e83612030565b9150612e2d82612dc6565b604082019050919050565b60006020820190508181036000830152612e5181612e15565b9050919050565b7f4e487b7100000000000000000000000000000000000000000000000000000000600052601160045260246000fd5b6000612e92826120e0565b9150612e9d836120e0565b925082821015612eb057612eaf612e58565b5b828203905092915050565b6000612ec6826120e0565b9150612ed1836120e0565b9250827fffffffffffffffffffffffffffffffffffffffffffffffffffffffffffffffff03821115612f0657612f05612e58565b5b828201905092915050565b600081519050919050565b600082825260208201905092915050565b6000612f3882612f11565b612f428185612f1c565b9350612f52818560208601612041565b612f5b81612074565b840191505092915050565b6000608082019050612f7b6000830187612175565b612f886020830186612175565b612f956040830185612409565b8181036060830152612fa78184612f2d565b905095945050505050565b600081519050612fc181611f96565b92915050565b600060208284031215612fdd57612fdc611f60565b5b6000612feb84828501612fb2565b91505092915050565b7f4e487b7100000000000000000000000000000000000000000000000000000000600052601260045260246000fd5b7f4552433732313a206d696e7420746f20746865207a65726f2061646472657373600082015250565b6000613059602083612030565b915061306482613023565b602082019050919050565b600060208201905081810360008301526130888161304c565b9050919050565b7f4552433732313a20746f6b656e20616c7265616479206d696e74656400000000600082015250565b60006130c5601c83612030565b91506130d08261308f565b602082019050919050565b600060208201905081810360008301526130f4816130b8565b905091905056fea26469706673582212207bef995796a56217c702f2294e7afa29226e3ba7c49dbe0bb633138676fba1bb64736f6c63430008090033",
  "linkReferences": {},
  "deployedLinkReferences": {}
}